{
  "_format": "hh-sol-artifact-1",
  "contractName": "FraudRegistry",
  "sourceName": "contracts/FraudRegistry.sol",
  "abi": [
    {
      "anonymous": false,
      "inputs": [
        {
          "indexed": false,
          "internalType": "address",
          "name": "wallet",
          "type": "address"
        },
        {
          "indexed": false,
          "internalType": "uint256",
          "name": "riskScore",
          "type": "uint256"
        },
        {
          "indexed": false,
          "internalType": "uint256",
          "name": "timestamp",
          "type": "uint256"
        }
      ],
      "name": "WalletFlagged",
      "type": "event"
    },
    {
      "inputs": [
        {
          "internalType": "address",
          "name": "_wallet",
          "type": "address"
        },
        {
          "internalType": "uint256",
          "name": "_riskScore",
          "type": "uint256"
        }
      ],
      "name": "flagWallet",
      "outputs": [],
      "stateMutability": "nonpayable",
      "type": "function"
    },
    {
      "inputs": [
        {
          "internalType": "address",
          "name": "",
          "type": "address"
        }
      ],
      "name": "walletRisk",
      "outputs": [
        {
          "internalType": "uint256",
          "name": "",
          "type": "uint256"
        }
      ],
      "stateMutability": "view",
      "type": "function"
    }
  ],
  "bytecode": "0x608060405234801561001057600080fd5b506102cd806100206000396000f3fe608060405234801561001057600080fd5b50600436106100365760003560e01c80633ead53411461003b5780637e2cc69e14610057575b600080fd5b610055600480360381019061005091906101ba565b610087565b005b610071600480360381019061006c91906101fa565b610109565b60405161007e9190610236565b60405180910390f35b806000808473ffffffffffffffffffffffffffffffffffffffff1673ffffffffffffffffffffffffffffffffffffffff168152602001908152602001600020819055507fe3deb4f8d7acdd20ee5633c741a40e9fb0cc2e7b10fd29771d831b772debdfc78282426040516100fd93929190610260565b60405180910390a15050565b60006020528060005260406000206000915090505481565b600080fd5b600073ffffffffffffffffffffffffffffffffffffffff82169050919050565b600061015182610126565b9050919050565b61016181610146565b811461016c57600080fd5b50565b60008135905061017e81610158565b92915050565b6000819050919050565b61019781610184565b81146101a257600080fd5b50565b6000813590506101b48161018e565b92915050565b600080604083850312156101d1576101d0610121565b5b60006101df8582860161016f565b92505060206101f0858286016101a5565b9150509250929050565b6000602082840312156102105761020f610121565b5b600061021e8482850161016f565b91505092915050565b61023081610184565b82525050565b600060208201905061024b6000830184610227565b92915050565b61025a81610146565b82525050565b60006060820190506102756000830186610251565b6102826020830185610227565b61028f6040830184610227565b94935050505056fea2646970667358221220f0572f8baeef8648bda44c0a7891df015624a545b282810a6d55eabc83f176ba64736f6c63430008140033",
  "linkReferences": {},
  "deployedLinkReferences": {}
}