{"contracts/FraudRegistry.sol":{"FraudRegistry":{"abi":[{"anonymous":false,"inputs":[{"indexed":false,"internalType":"address","name":"wallet","type":"address"},{"indexed":false,"internalType":"uint256","name":"riskScore","type":"uint256"},{"indexed":false,"internalType":"uint256","name":"timestamp","type":"uint256"}],"name":"WalletFlagged","type":"event"},{"inputs":[{"internalType":"address","name":"_wallet","type":"address"},{"internalType":"uint256","name":"_riskScore","type":"uint256"}],"name":"flagWallet","outputs":[],"stateMutability":"nonpayable","type":"function"},{"inputs":[{"internalType":"address","name":"","type":"address"}],"name":"walletRisk","outputs":[{"internalType":"uint256","name":"","type":"uint256"}],"stateMutability":"view","type":"function"}],"evm":{"bytecode":{"linkReferences":{},"object":"608060405234801561001057600080fd5b506102cd806100206000396000f3fe608060405234801561001057600080fd5b50600436106100365760003560e01c80633ead53411461003b5780637e2cc69e14610057575b600080fd5b610055600480360381019061005091906101ba565b610087565b005b610071600480360381019061006c91906101fa565b610109565b60405161007e9190610236565b60405180910390f35b806000808473ffffffffffffffffffffffffffffffffffffffff1673ffffffffffffffffffffffffffffffffffffffff168152602001908152602001600020819055507fe3deb4f8d7acdd20ee5633c741a40e9fb0cc2e7b10fd29771d831b772debdfc78282426040516100fd93929190610260565b60405180910390a15050565b60006020528060005260406000206000915090505481565b600080fd5b600073ffffffffffffffffffffffffffffffffffffffff82169050919050565b600061015182610126565b9050919050565b61016181610146565b811461016c57600080fd5b50565b60008135905061017e81610158565b92915050565b6000819050919050565b61019781610184565b81146101a257600080fd5b50565b6000813590506101b48161018e565b92915050565b600080604083850312156101d1576101d0610121565b5b60006101df8582860161016f565b92505060206101f0858286016101a5565b9150509250929050565b6000602082840312156102105761020f610121565b5b600061021e8482850161016f565b91505092915050565b61023081610184565b82525050565b600060208201905061024b6000830184610227565b92915050565b61025a81610146565b82525050565b60006060820190506102756000830186610251565b6102826020830185610227565b61028f6040830184610227565b94935050505056fea2646970667358221220f0572f8baeef8648bda44c0a7891df015624a545b282810a6d55eabc83f176ba64736f6c63430008140033","opcodes":"PUSH1 0x80 PUSH1 0x40 MSTORE CALLVALUE DUP1 ISZERO PUSH2 0x10 JUMPI PUSH1 0x0 DUP1 REVERT JUMPDEST POP PUSH2 0x2CD DUP1 PUSH2 0x20 PUSH1 0x0 CODECOPY PUSH1 0x0 RETURN INVALID PUSH1 0x80 PUSH1 0x40 MSTORE CALLVALUE DUP1 ISZERO PUSH2 0x10 JUMPI PUSH1 0x0 DUP1 REVERT JUMPDEST POP PUSH1 0x4 CALLDATASIZE LT PUSH2 0x36 JUMPI PUSH1 0x0 CALLDATALOAD PUSH1 0xE0 SHR DUP1 PUSH4 0x3EAD5341 EQ PUSH2 0x3B JUMPI DUP1 PUSH4 0x7E2CC69E EQ PUSH2 0x57 JUMPI JUMPDEST PUSH1 0x0 DUP1 REVERT JUMPDEST PUSH2 0x55 PUSH1 0x4 DUP1 CALLDATASIZE SUB DUP2 ADD SWAP1 PUSH2 0x50 SWAP2 SWAP1 PUSH2 0x1BA JUMP JUMPDEST PUSH2 0x87 JUMP JUMPDEST STOP JUMPDEST PUSH2 0x71 PUSH1 0x4 DUP1 CALLDATASIZE SUB DUP2 ADD SWAP1 PUSH2 0x6C SWAP2 SWAP1 PUSH2 0x1FA JUMP JUMPDEST PUSH2 0x109 JUMP JUMPDEST PUSH1 0x40 MLOAD PUSH2 0x7E SWAP2 SWAP1 PUSH2 0x236 JUMP JUMPDEST PUSH1 0x40 MLOAD DUP1 SWAP2 SUB SWAP1 RETURN JUMPDEST DUP1 PUSH1 0x0 DUP1 DUP5 PUSH20 0xFFFFFFFFFFFFFFFFFFFFFFFFFFFFFFFFFFFFFFFF AND PUSH20 0xFFFFFFFFFFFFFFFFFFFFFFFFFFFFFFFFFFFFFFFF AND DUP2 MSTORE PUSH1 0x20 ADD SWAP1 DUP2 MSTORE PUSH1 0x20 ADD PUSH1 0x0 KECCAK256 DUP2 SWAP1 SSTORE POP PUSH32 0xE3DEB4F8D7ACDD20EE5633C741A40E9FB0CC2E7B10FD29771D831B772DEBDFC7 DUP3 DUP3 TIMESTAMP PUSH1 0x40 MLOAD PUSH2 0xFD SWAP4 SWAP3 SWAP2 SWAP1 PUSH2 0x260 JUMP JUMPDEST PUSH1 0x40 MLOAD DUP1 SWAP2 SUB SWAP1 LOG1 POP POP JUMP JUMPDEST PUSH1 0x0 PUSH1 0x20 MSTORE DUP1 PUSH1 0x0 MSTORE PUSH1 0x40 PUSH1 0x0 KECCAK256 PUSH1 0x0 SWAP2 POP SWAP1 POP SLOAD DUP2 JUMP JUMPDEST PUSH1 0x0 DUP1 REVERT JUMPDEST PUSH1 0x0 PUSH20 0xFFFFFFFFFFFFFFFFFFFFFFFFFFFFFFFFFFFFFFFF DUP3 AND SWAP1 POP SWAP2 SWAP1 POP JUMP JUMPDEST PUSH1 0x0 PUSH2 0x151 DUP3 PUSH2 0x126 JUMP JUMPDEST SWAP1 POP SWAP2 SWAP1 POP JUMP JUMPDEST PUSH2 0x161 DUP2 PUSH2 0x146 JUMP JUMPDEST DUP2 EQ PUSH2 0x16C JUMPI PUSH1 0x0 DUP1 REVERT JUMPDEST POP JUMP JUMPDEST PUSH1 0x0 DUP2 CALLDATALOAD SWAP1 POP PUSH2 0x17E DUP2 PUSH2 0x158 JUMP JUMPDEST SWAP3 SWAP2 POP POP JUMP JUMPDEST PUSH1 0x0 DUP2 SWAP1 POP SWAP2 SWAP1 POP JUMP JUMPDEST PUSH2 0x197 DUP2 PUSH2 0x184 JUMP JUMPDEST DUP2 EQ PUSH2 0x1A2 JUMPI PUSH1 0x0 DUP1 REVERT JUMPDEST POP JUMP JUMPDEST PUSH1 0x0 DUP2 CALLDATALOAD SWAP1 POP PUSH2 0x1B4 DUP2 PUSH2 0x18E JUMP JUMPDEST SWAP3 SWAP2 POP POP JUMP JUMPDEST PUSH1 0x0 DUP1 PUSH1 0x40 DUP4 DUP6 SUB SLT ISZERO PUSH2 0x1D1 JUMPI PUSH2 0x1D0 PUSH2 0x121 JUMP JUMPDEST JUMPDEST PUSH1 0x0 PUSH2 0x1DF DUP6 DUP3 DUP7 ADD PUSH2 0x16F JUMP JUMPDEST SWAP3 POP POP PUSH1 0x20 PUSH2 0x1F0 DUP6 DUP3 DUP7 ADD PUSH2 0x1A5 JUMP JUMPDEST SWAP2 POP POP SWAP3 POP SWAP3 SWAP1 POP JUMP JUMPDEST PUSH1 0x0 PUSH1 0x20 DUP3 DUP5 SUB SLT ISZERO PUSH2 0x210 JUMPI PUSH2 0x20F PUSH2 0x121 JUMP JUMPDEST JUMPDEST PUSH1 0x0 PUSH2 0x21E DUP5 DUP3 DUP6 ADD PUSH2 0x16F JUMP JUMPDEST SWAP2 POP POP SWAP3 SWAP2 POP POP JUMP JUMPDEST PUSH2 0x230 DUP2 PUSH2 0x184 JUMP JUMPDEST DUP3 MSTORE POP POP JUMP JUMPDEST PUSH1 0x0 PUSH1 0x20 DUP3 ADD SWAP1 POP PUSH2 0x24B PUSH1 0x0 DUP4 ADD DUP5 PUSH2 0x227 JUMP JUMPDEST SWAP3 SWAP2 POP POP JUMP JUMPDEST PUSH2 0x25A DUP2 PUSH2 0x146 JUMP JUMPDEST DUP3 MSTORE POP POP JUMP JUMPDEST PUSH1 0x0 PUSH1 0x60 DUP3 ADD SWAP1 POP PUSH2 0x275 PUSH1 0x0 DUP4 ADD DUP7 PUSH2 0x251 JUMP JUMPDEST PUSH2 0x282 PUSH1 0x20 DUP4 ADD DUP6 PUSH2 0x227 JUMP JUMPDEST PUSH2 0x28F PUSH1 0x40 DUP4 ADD DUP5 PUSH2 0x227 JUMP JUMPDEST SWAP5 SWAP4 POP POP POP POP JUMP INVALID LOG2 PUSH5 0x6970667358 0x22 SLT KECCAK256 CREATE JUMPI 0x2F DUP12 0xAE 0xEF DUP7 BASEFEE 0xBD LOG4 0x4C EXP PUSH25 0x91DF015624A545B282810A6D55EABC83F176BA64736F6C6343 STOP ADDMOD EQ STOP CALLER "},"methodIdentifiers":{"flagWallet(address,uint256)":"3ead5341","walletRisk(address)":"7e2cc69e"}}}}}